{
  "_format": "hh-sol-artifact-1",
  "contractName": "DeriOneV1Main",
  "sourceName": "contracts/DeriOneV1Main.sol",
  "abi": [
    {
      "inputs": [
        {
          "internalType": "address",
          "name": "_charmV02OptionFactoryAddress",
          "type": "address"
        },
        {
          "internalType": "address",
          "name": "_hegicETHOptionV888Address",
          "type": "address"
        },
        {
          "internalType": "address",
          "name": "_hegicV888ETHPoolAddress",
          "type": "address"
        }
      ],
      "stateMutability": "nonpayable",
      "type": "constructor"
    },
    {
      "anonymous": false,
      "inputs": [
        {
          "indexed": true,
          "internalType": "address",
          "name": "previousOwner",
          "type": "address"
        },
        {
          "indexed": true,
          "internalType": "address",
          "name": "newOwner",
          "type": "address"
        }
      ],
      "name": "OwnershipTransferred",
      "type": "event"
    },
    {
      "inputs": [
        {
          "internalType": "uint256",
          "name": "_expiry",
          "type": "uint256"
        },
        {
          "internalType": "uint256",
          "name": "_strikeUSD",
          "type": "uint256"
        },
        {
          "internalType": "uint256",
          "name": "_sizeWEI",
          "type": "uint256"
        }
      ],
      "name": "getTheCheapestETHPut",
      "outputs": [
        {
          "components": [
            {
              "internalType": "enum DeriOneV1Main.Protocol",
              "name": "protocol",
              "type": "uint8"
            },
            {
              "internalType": "enum DataTypes.UnderlyingAsset",
              "name": "underlyingAsset",
              "type": "uint8"
            },
            {
              "internalType": "enum DataTypes.OptionType",
              "name": "optionType",
              "type": "uint8"
            },
            {
              "internalType": "uint256",
              "name": "expiry",
              "type": "uint256"
            },
            {
              "internalType": "uint256",
              "name": "strikeUSD",
              "type": "uint256"
            },
            {
              "internalType": "uint256",
              "name": "sizeWEI",
              "type": "uint256"
            },
            {
              "internalType": "uint256",
              "name": "premiumWEI",
              "type": "uint256"
            }
          ],
          "internalType": "struct DeriOneV1Main.Option",
          "name": "",
          "type": "tuple"
        }
      ],
      "stateMutability": "view",
      "type": "function"
    },
    {
      "inputs": [
        {
          "internalType": "address",
          "name": "_hegicETHOptionV888Address",
          "type": "address"
        }
      ],
      "name": "instantiateETHOptionHegicV888",
      "outputs": [],
      "stateMutability": "nonpayable",
      "type": "function"
    },
    {
      "inputs": [
        {
          "internalType": "address",
          "name": "_hegicV888ETHPoolAddress",
          "type": "address"
        }
      ],
      "name": "instantiateETHPoolHegicV888",
      "outputs": [],
      "stateMutability": "nonpayable",
      "type": "function"
    },
    {
      "inputs": [
        {
          "internalType": "address",
          "name": "_optionFactoryAddressCharmV02",
          "type": "address"
        }
      ],
      "name": "instantiateOptionFactoryCharmV02",
      "outputs": [],
      "stateMutability": "nonpayable",
      "type": "function"
    },
    {
      "inputs": [],
      "name": "owner",
      "outputs": [
        {
          "internalType": "address",
          "name": "",
          "type": "address"
        }
      ],
      "stateMutability": "view",
      "type": "function"
    },
    {
      "inputs": [],
      "name": "renounceOwnership",
      "outputs": [],
      "stateMutability": "nonpayable",
      "type": "function"
    },
    {
      "inputs": [
        {
          "internalType": "address",
          "name": "newOwner",
          "type": "address"
        }
      ],
      "name": "transferOwnership",
      "outputs": [],
      "stateMutability": "nonpayable",
      "type": "function"
    }
  ],
  "bytecode": "0x60806040523480156200001157600080fd5b5060405162001a8338038062001a838339818101604052620000379190810190620003f7565b81818460006200004c6200012960201b60201c565b9050806000806101000a81548173ffffffffffffffffffffffffffffffffffffffff021916908373ffffffffffffffffffffffffffffffffffffffff1602179055508073ffffffffffffffffffffffffffffffffffffffff16600073ffffffffffffffffffffffffffffffffffffffff167f8be0079c531659141344cd1fd0a4f28419497f9722a3daafe3b4186f6b6457e060405160405180910390a350620000fb816200013160201b60201c565b506200010d826200021660201b60201c565b6200011e81620002fb60201b60201c565b505050505062000510565b600033905090565b620001416200012960201b60201c565b73ffffffffffffffffffffffffffffffffffffffff166000809054906101000a900473ffffffffffffffffffffffffffffffffffffffff1673ffffffffffffffffffffffffffffffffffffffff1614620001d2576040517f08c379a0000000000000000000000000000000000000000000000000000000008152600401620001c9906200048f565b60405180910390fd5b80600160006101000a81548173ffffffffffffffffffffffffffffffffffffffff021916908373ffffffffffffffffffffffffffffffffffffffff16021790555050565b620002266200012960201b60201c565b73ffffffffffffffffffffffffffffffffffffffff166000809054906101000a900473ffffffffffffffffffffffffffffffffffffffff1673ffffffffffffffffffffffffffffffffffffffff1614620002b7576040517f08c379a0000000000000000000000000000000000000000000000000000000008152600401620002ae906200048f565b60405180910390fd5b80600260006101000a81548173ffffffffffffffffffffffffffffffffffffffff021916908373ffffffffffffffffffffffffffffffffffffffff16021790555050565b6200030b6200012960201b60201c565b73ffffffffffffffffffffffffffffffffffffffff166000809054906101000a900473ffffffffffffffffffffffffffffffffffffffff1673ffffffffffffffffffffffffffffffffffffffff16146200039c576040517f08c379a000000000000000000000000000000000000000000000000000000000815260040162000393906200048f565b60405180910390fd5b80600360006101000a81548173ffffffffffffffffffffffffffffffffffffffff021916908373ffffffffffffffffffffffffffffffffffffffff16021790555050565b600081519050620003f181620004f6565b92915050565b6000806000606084860312156200040d57600080fd5b60006200041d86828701620003e0565b93505060206200043086828701620003e0565b92505060406200044386828701620003e0565b9150509250925092565b60006200045c602083620004b1565b91507f4f776e61626c653a2063616c6c6572206973206e6f7420746865206f776e65726000830152602082019050919050565b60006020820190508181036000830152620004aa816200044d565b9050919050565b600082825260208201905092915050565b6000620004cf82620004d6565b9050919050565b600073ffffffffffffffffffffffffffffffffffffffff82169050919050565b6200050181620004c2565b81146200050d57600080fd5b50565b61156380620005206000396000f3fe608060405234801561001057600080fd5b506004361061007d5760003560e01c8063715018a61161005b578063715018a6146100ea5780637766918c146100f45780638da5cb5b14610110578063f2fde38b1461012e5761007d565b8063063bf79e146100825780631daccb03146100b25780635d77a871146100ce575b600080fd5b61009c60048036036100979190810190610ec9565b61014a565b6040516100a99190611360565b60405180910390f35b6100cc60048036036100c79190810190610e77565b61022e565b005b6100e860048036036100e39190810190610e77565b610308565b005b6100f26103e2565b005b61010e60048036036101099190810190610e77565b610537565b005b610118610611565b6040516101259190611283565b60405180910390f35b61014860048036036101439190810190610e77565b61063a565b005b610152610d95565b61015a610df3565b6101658585856107fe565b90506001151561017484610924565b1515146101b6576040517f08c379a00000000000000000000000000000000000000000000000000000000081526004016101ad90611340565b60405180910390fd5b6101be610d95565b6040518060e00160405280600060018111156101d657fe5b8152602001600060018111156101e857fe5b81526020016001808111156101f957fe5b815260200183604001518152602001836060015181526020018581526020018360800151815250905080925050509392505050565b610236610bcd565b73ffffffffffffffffffffffffffffffffffffffff166000809054906101000a900473ffffffffffffffffffffffffffffffffffffffff1673ffffffffffffffffffffffffffffffffffffffff16146102c4576040517f08c379a00000000000000000000000000000000000000000000000000000000081526004016102bb90611320565b60405180910390fd5b80600260006101000a81548173ffffffffffffffffffffffffffffffffffffffff021916908373ffffffffffffffffffffffffffffffffffffffff16021790555050565b610310610bcd565b73ffffffffffffffffffffffffffffffffffffffff166000809054906101000a900473ffffffffffffffffffffffffffffffffffffffff1673ffffffffffffffffffffffffffffffffffffffff161461039e576040517f08c379a000000000000000000000000000000000000000000000000000000000815260040161039590611320565b60405180910390fd5b80600360006101000a81548173ffffffffffffffffffffffffffffffffffffffff021916908373ffffffffffffffffffffffffffffffffffffffff16021790555050565b6103ea610bcd565b73ffffffffffffffffffffffffffffffffffffffff166000809054906101000a900473ffffffffffffffffffffffffffffffffffffffff1673ffffffffffffffffffffffffffffffffffffffff1614610478576040517f08c379a000000000000000000000000000000000000000000000000000000000815260040161046f90611320565b60405180910390fd5b600073ffffffffffffffffffffffffffffffffffffffff166000809054906101000a900473ffffffffffffffffffffffffffffffffffffffff1673ffffffffffffffffffffffffffffffffffffffff167f8be0079c531659141344cd1fd0a4f28419497f9722a3daafe3b4186f6b6457e060405160405180910390a360008060006101000a81548173ffffffffffffffffffffffffffffffffffffffff021916908373ffffffffffffffffffffffffffffffffffffffff160217905550565b61053f610bcd565b73ffffffffffffffffffffffffffffffffffffffff166000809054906101000a900473ffffffffffffffffffffffffffffffffffffffff1673ffffffffffffffffffffffffffffffffffffffff16146105cd576040517f08c379a00000000000000000000000000000000000000000000000000000000081526004016105c490611320565b60405180910390fd5b80600160006101000a81548173ffffffffffffffffffffffffffffffffffffffff021916908373ffffffffffffffffffffffffffffffffffffffff16021790555050565b60008060009054906101000a900473ffffffffffffffffffffffffffffffffffffffff16905090565b610642610bcd565b73ffffffffffffffffffffffffffffffffffffffff166000809054906101000a900473ffffffffffffffffffffffffffffffffffffffff1673ffffffffffffffffffffffffffffffffffffffff16146106d0576040517f08c379a00000000000000000000000000000000000000000000000000000000081526004016106c790611320565b60405180910390fd5b600073ffffffffffffffffffffffffffffffffffffffff168173ffffffffffffffffffffffffffffffffffffffff161415610740576040517f08c379a0000000000000000000000000000000000000000000000000000000008152600401610737906112c0565b60405180910390fd5b8073ffffffffffffffffffffffffffffffffffffffff166000809054906101000a900473ffffffffffffffffffffffffffffffffffffffff1673ffffffffffffffffffffffffffffffffffffffff167f8be0079c531659141344cd1fd0a4f28419497f9722a3daafe3b4186f6b6457e060405160405180910390a3806000806101000a81548173ffffffffffffffffffffffffffffffffffffffff021916908373ffffffffffffffffffffffffffffffffffffffff16021790555050565b610806610df3565b6000600190506000600260009054906101000a900473ffffffffffffffffffffffffffffffffffffffff1673ffffffffffffffffffffffffffffffffffffffff1663c7c3b53f87868886600281111561085b57fe5b6040518563ffffffff1660e01b815260040161087a949392919061137b565b60806040518083038186803b15801561089257600080fd5b505afa1580156108a6573d6000803e3d6000fd5b505050506040513d601f19601f820116820180604052506108ca9190810190610f18565b50505090506108d7610df3565b6040518060a00160405280600060018111156108ef57fe5b815260200160018081111561090057fe5b81526020018881526020018781526020018381525090508093505050509392505050565b6000806109ed600a6109df6008600360009054906101000a900473ffffffffffffffffffffffffffffffffffffffff1673ffffffffffffffffffffffffffffffffffffffff1663ad7a672f6040518163ffffffff1660e01b815260040160206040518083038186803b15801561099957600080fd5b505afa1580156109ad573d6000803e3d6000fd5b505050506040513d601f19601f820116820180604052506109d19190810190610ea0565b610bd590919063ffffffff16565b610c4590919063ffffffff16565b90506000610b42600360009054906101000a900473ffffffffffffffffffffffffffffffffffffffff1673ffffffffffffffffffffffffffffffffffffffff1663ab2f0e516040518163ffffffff1660e01b815260040160206040518083038186803b158015610a5c57600080fd5b505afa158015610a70573d6000803e3d6000fd5b505050506040513d601f19601f82011682018060405250610a949190810190610ea0565b600360009054906101000a900473ffffffffffffffffffffffffffffffffffffffff1673ffffffffffffffffffffffffffffffffffffffff1663ad7a672f6040518163ffffffff1660e01b815260040160206040518083038186803b158015610afc57600080fd5b505afa158015610b10573d6000803e3d6000fd5b505050506040513d601f19601f82011682018060405250610b349190810190610ea0565b610c8f90919063ffffffff16565b9050808211610b86576040517f08c379a0000000000000000000000000000000000000000000000000000000008152600401610b7d906112e0565b60405180910390fd5b6000610b9b8284610c8f90919063ffffffff16565b905084811115610bb15760019350505050610bc8565b848111610bc45760009350505050610bc8565b5050505b919050565b600033905090565b600080831415610be85760009050610c3f565b6000828402905082848281610bf957fe5b0414610c3a576040517f08c379a0000000000000000000000000000000000000000000000000000000008152600401610c3190611300565b60405180910390fd5b809150505b92915050565b6000610c8783836040518060400160405280601a81526020017f536166654d6174683a206469766973696f6e206279207a65726f000000000000815250610cd9565b905092915050565b6000610cd183836040518060400160405280601e81526020017f536166654d6174683a207375627472616374696f6e206f766572666c6f770000815250610d3a565b905092915050565b60008083118290610d20576040517f08c379a0000000000000000000000000000000000000000000000000000000008152600401610d17919061129e565b60405180910390fd5b506000838581610d2c57fe5b049050809150509392505050565b6000838311158290610d82576040517f08c379a0000000000000000000000000000000000000000000000000000000008152600401610d79919061129e565b60405180910390fd5b5060008385039050809150509392505050565b6040518060e0016040528060006001811115610dad57fe5b815260200160006001811115610dbf57fe5b815260200160006001811115610dd157fe5b8152602001600081526020016000815260200160008152602001600081525090565b6040518060a0016040528060006001811115610e0b57fe5b815260200160006001811115610e1d57fe5b81526020016000815260200160008152602001600081525090565b600081359050610e47816114ff565b92915050565b600081359050610e5c81611516565b92915050565b600081519050610e7181611516565b92915050565b600060208284031215610e8957600080fd5b6000610e9784828501610e38565b91505092915050565b600060208284031215610eb257600080fd5b6000610ec084828501610e62565b91505092915050565b600080600060608486031215610ede57600080fd5b6000610eec86828701610e4d565b9350506020610efd86828701610e4d565b9250506040610f0e86828701610e4d565b9150509250925092565b60008060008060808587031215610f2e57600080fd5b6000610f3c87828801610e62565b9450506020610f4d87828801610e62565b9350506040610f5e87828801610e62565b9250506060610f6f87828801610e62565b91505092959194509250565b610f84816113dc565b82525050565b610f938161145e565b82525050565b610fa281611470565b82525050565b610fb181611482565b82525050565b6000610fc2826113c0565b610fcc81856113cb565b9350610fdc818560208601611494565b610fe5816114c7565b840191505092915050565b6000610ffd6026836113cb565b91507f4f776e61626c653a206e6577206f776e657220697320746865207a65726f206160008301527f64647265737300000000000000000000000000000000000000000000000000006020830152604082019050919050565b60006110636025836113cb565b91507f7468657265206973206e6f7420656e6f75676820617661696c61626c6520626160008301527f6c616e63650000000000000000000000000000000000000000000000000000006020830152604082019050919050565b60006110c96021836113cb565b91507f536166654d6174683a206d756c7469706c69636174696f6e206f766572666c6f60008301527f77000000000000000000000000000000000000000000000000000000000000006020830152604082019050919050565b600061112f6020836113cb565b91507f4f776e61626c653a2063616c6c6572206973206e6f7420746865206f776e65726000830152602082019050919050565b600061116f6034836113cb565b91507f796f75722073697a6520697320746f6f2062696720666f72206c69717569646960008301527f747920696e2074686520486567696320563838380000000000000000000000006020830152604082019050919050565b60e0820160008201516111de6000850182610f99565b5060208201516111f16020850182610fa8565b5060408201516112046040850182610f8a565b5060608201516112176060850182611256565b50608082015161122a6080850182611256565b5060a082015161123d60a0850182611256565b5060c082015161125060c0850182611256565b50505050565b61125f81611447565b82525050565b61126e81611447565b82525050565b61127d81611451565b82525050565b60006020820190506112986000830184610f7b565b92915050565b600060208201905081810360008301526112b88184610fb7565b905092915050565b600060208201905081810360008301526112d981610ff0565b9050919050565b600060208201905081810360008301526112f981611056565b9050919050565b60006020820190508181036000830152611319816110bc565b9050919050565b6000602082019050818103600083015261133981611122565b9050919050565b6000602082019050818103600083015261135981611162565b9050919050565b600060e08201905061137560008301846111c8565b92915050565b60006080820190506113906000830187611265565b61139d6020830186611265565b6113aa6040830185611265565b6113b76060830184611274565b95945050505050565b600081519050919050565b600082825260208201905092915050565b60006113e782611427565b9050919050565b60008190506113fc826114d8565b919050565b600081905061140f826114e5565b919050565b6000819050611422826114f2565b919050565b600073ffffffffffffffffffffffffffffffffffffffff82169050919050565b6000819050919050565b600060ff82169050919050565b6000611469826113ee565b9050919050565b600061147b82611401565b9050919050565b600061148d82611414565b9050919050565b60005b838110156114b2578082015181840152602081019050611497565b838111156114c1576000848401525b50505050565b6000601f19601f8301169050919050565b600281106114e257fe5b50565b600281106114ef57fe5b50565b600281106114fc57fe5b50565b611508816113dc565b811461151357600080fd5b50565b61151f81611447565b811461152a57600080fd5b5056fea26469706673582212202dcc6f68b36532257b3b5046e11a1c509aded86c8b5e51dd3f564456d7fb5aa964736f6c63430006000033",
  "linkReferences": {},
  "deployedLinkReferences": {}
}