{
  "_format": "hh-sol-artifact-1",
  "contractName": "DeriOneV1Main",
  "sourceName": "contracts/DeriOneV1Main.sol",
  "abi": [
    {
      "inputs": [
        {
          "internalType": "address",
          "name": "_hegicETHOptionV888Address",
          "type": "address"
        },
        {
          "internalType": "address",
          "name": "_hegicETHPoolV888Address",
          "type": "address"
        }
      ],
      "stateMutability": "nonpayable",
      "type": "constructor"
    },
    {
      "anonymous": false,
      "inputs": [
        {
          "indexed": true,
          "internalType": "address",
          "name": "previousOwner",
          "type": "address"
        },
        {
          "indexed": true,
          "internalType": "address",
          "name": "newOwner",
          "type": "address"
        }
      ],
      "name": "OwnershipTransferred",
      "type": "event"
    },
    {
      "inputs": [],
      "name": "aaa",
      "outputs": [
        {
          "internalType": "uint256",
          "name": "",
          "type": "uint256"
        }
      ],
      "stateMutability": "view",
      "type": "function"
    },
    {
      "inputs": [
        {
          "internalType": "uint256",
          "name": "_minExpiry",
          "type": "uint256"
        },
        {
          "internalType": "uint256",
          "name": "_minStrikeInUSD",
          "type": "uint256"
        },
        {
          "internalType": "uint256",
          "name": "_maxStrikeInUSD",
          "type": "uint256"
        },
        {
          "internalType": "uint256",
          "name": "_optionSizeInWEI",
          "type": "uint256"
        }
      ],
      "name": "getTheCheapestETHPutOption",
      "outputs": [
        {
          "components": [
            {
              "internalType": "enum DeriOneV1Main.Protocol",
              "name": "protocol",
              "type": "uint8"
            },
            {
              "internalType": "address",
              "name": "oTokenAddress",
              "type": "address"
            },
            {
              "internalType": "address",
              "name": "paymentTokenAddress",
              "type": "address"
            },
            {
              "internalType": "uint256",
              "name": "expiry",
              "type": "uint256"
            },
            {
              "internalType": "uint256",
              "name": "optionSizeInWEI",
              "type": "uint256"
            },
            {
              "internalType": "uint256",
              "name": "premiumInWEI",
              "type": "uint256"
            },
            {
              "internalType": "uint256",
              "name": "strikeInUSD",
              "type": "uint256"
            }
          ],
          "internalType": "struct DeriOneV1Main.TheCheapestETHPutOption",
          "name": "",
          "type": "tuple"
        }
      ],
      "stateMutability": "view",
      "type": "function"
    },
    {
      "inputs": [
        {
          "internalType": "address",
          "name": "_hegicETHOptionV888Address",
          "type": "address"
        }
      ],
      "name": "instantiateHegicETHOptionV888",
      "outputs": [],
      "stateMutability": "nonpayable",
      "type": "function"
    },
    {
      "inputs": [
        {
          "internalType": "address",
          "name": "_hegicETHPoolV888Address",
          "type": "address"
        }
      ],
      "name": "instantiateHegicETHPoolV888",
      "outputs": [],
      "stateMutability": "nonpayable",
      "type": "function"
    },
    {
      "inputs": [],
      "name": "owner",
      "outputs": [
        {
          "internalType": "address",
          "name": "",
          "type": "address"
        }
      ],
      "stateMutability": "view",
      "type": "function"
    },
    {
      "inputs": [],
      "name": "renounceOwnership",
      "outputs": [],
      "stateMutability": "nonpayable",
      "type": "function"
    },
    {
      "inputs": [],
      "name": "testb",
      "outputs": [
        {
          "internalType": "uint256",
          "name": "",
          "type": "uint256"
        }
      ],
      "stateMutability": "view",
      "type": "function"
    },
    {
      "inputs": [
        {
          "internalType": "uint256",
          "name": "a",
          "type": "uint256"
        }
      ],
      "name": "testing",
      "outputs": [
        {
          "internalType": "uint256",
          "name": "",
          "type": "uint256"
        }
      ],
      "stateMutability": "view",
      "type": "function"
    },
    {
      "inputs": [
        {
          "internalType": "address",
          "name": "newOwner",
          "type": "address"
        }
      ],
      "name": "transferOwnership",
      "outputs": [],
      "stateMutability": "nonpayable",
      "type": "function"
    }
  ],
  "bytecode": "0x608060405260186003553480156200001657600080fd5b50604051620018ea380380620018ea83398181016040526200003c919081019062000303565b81816000620000506200011a60201b60201c565b9050806000806101000a81548173ffffffffffffffffffffffffffffffffffffffff021916908373ffffffffffffffffffffffffffffffffffffffff1602179055508073ffffffffffffffffffffffffffffffffffffffff16600073ffffffffffffffffffffffffffffffffffffffff167f8be0079c531659141344cd1fd0a4f28419497f9722a3daafe3b4186f6b6457e060405160405180910390a350620000ff826200012260201b60201c565b62000110816200020760201b60201c565b5050505062000407565b600033905090565b620001326200011a60201b60201c565b73ffffffffffffffffffffffffffffffffffffffff166000809054906101000a900473ffffffffffffffffffffffffffffffffffffffff1673ffffffffffffffffffffffffffffffffffffffff1614620001c3576040517f08c379a0000000000000000000000000000000000000000000000000000000008152600401620001ba9062000386565b60405180910390fd5b80600160006101000a81548173ffffffffffffffffffffffffffffffffffffffff021916908373ffffffffffffffffffffffffffffffffffffffff16021790555050565b620002176200011a60201b60201c565b73ffffffffffffffffffffffffffffffffffffffff166000809054906101000a900473ffffffffffffffffffffffffffffffffffffffff1673ffffffffffffffffffffffffffffffffffffffff1614620002a8576040517f08c379a00000000000000000000000000000000000000000000000000000000081526004016200029f9062000386565b60405180910390fd5b80600260006101000a81548173ffffffffffffffffffffffffffffffffffffffff021916908373ffffffffffffffffffffffffffffffffffffffff16021790555050565b600081519050620002fd81620003ed565b92915050565b600080604083850312156200031757600080fd5b60006200032785828601620002ec565b92505060206200033a85828601620002ec565b9150509250929050565b600062000353602083620003a8565b91507f4f776e61626c653a2063616c6c6572206973206e6f7420746865206f776e65726000830152602082019050919050565b60006020820190508181036000830152620003a18162000344565b9050919050565b600082825260208201905092915050565b6000620003c682620003cd565b9050919050565b600073ffffffffffffffffffffffffffffffffffffffff82169050919050565b620003f881620003b9565b81146200040457600080fd5b50565b6114d380620004176000396000f3fe608060405234801561001057600080fd5b50600436106100935760003560e01c8063ac71ebee11610066578063ac71ebee1461010e578063bb427a481461012c578063da8453761461015c578063f2fde38b14610178578063f68254cb1461019457610093565b80636c30f76514610098578063715018a6146100c85780638da5cb5b146100d2578063937c0d0a146100f0575b600080fd5b6100b260048036036100ad9190810190610e2b565b6101b0565b6040516100bf9190611334565b60405180910390f35b6100d06101ba565b005b6100da61030f565b6040516100e7919061123c565b60405180910390f35b6100f8610338565b6040516101059190611334565b60405180910390f35b61011661033e565b6040516101239190611334565b60405180910390f35b61014660048036036101419190810190610e7d565b610348565b6040516101539190611319565b60405180910390f35b61017660048036036101719190810190610e02565b610443565b005b610192600480360361018d9190810190610e02565b61051d565b005b6101ae60048036036101a99190810190610e02565b6106e1565b005b6000819050919050565b6101c26107bb565b73ffffffffffffffffffffffffffffffffffffffff166000809054906101000a900473ffffffffffffffffffffffffffffffffffffffff1673ffffffffffffffffffffffffffffffffffffffff1614610250576040517f08c379a0000000000000000000000000000000000000000000000000000000008152600401610247906112d9565b60405180910390fd5b600073ffffffffffffffffffffffffffffffffffffffff166000809054906101000a900473ffffffffffffffffffffffffffffffffffffffff1673ffffffffffffffffffffffffffffffffffffffff167f8be0079c531659141344cd1fd0a4f28419497f9722a3daafe3b4186f6b6457e060405160405180910390a360008060006101000a81548173ffffffffffffffffffffffffffffffffffffffff021916908373ffffffffffffffffffffffffffffffffffffffff160217905550565b60008060009054906101000a900473ffffffffffffffffffffffffffffffffffffffff16905090565b60035481565b6000600354905090565b610350610d2f565b610358610da2565b6103638684876107c3565b905060011515610372846108c6565b1515146103b4576040517f08c379a00000000000000000000000000000000000000000000000000000000081526004016103ab906112f9565b60405180910390fd5b6103bc610d2f565b6040518060e001604052806000808111156103d357fe5b8152602001600073ffffffffffffffffffffffffffffffffffffffff168152602001600073ffffffffffffffffffffffffffffffffffffffff1681526020018360000151815260200185815260200183602001518152602001836040015181525090508092505050949350505050565b61044b6107bb565b73ffffffffffffffffffffffffffffffffffffffff166000809054906101000a900473ffffffffffffffffffffffffffffffffffffffff1673ffffffffffffffffffffffffffffffffffffffff16146104d9576040517f08c379a00000000000000000000000000000000000000000000000000000000081526004016104d0906112d9565b60405180910390fd5b80600160006101000a81548173ffffffffffffffffffffffffffffffffffffffff021916908373ffffffffffffffffffffffffffffffffffffffff16021790555050565b6105256107bb565b73ffffffffffffffffffffffffffffffffffffffff166000809054906101000a900473ffffffffffffffffffffffffffffffffffffffff1673ffffffffffffffffffffffffffffffffffffffff16146105b3576040517f08c379a00000000000000000000000000000000000000000000000000000000081526004016105aa906112d9565b60405180910390fd5b600073ffffffffffffffffffffffffffffffffffffffff168173ffffffffffffffffffffffffffffffffffffffff161415610623576040517f08c379a000000000000000000000000000000000000000000000000000000000815260040161061a90611279565b60405180910390fd5b8073ffffffffffffffffffffffffffffffffffffffff166000809054906101000a900473ffffffffffffffffffffffffffffffffffffffff1673ffffffffffffffffffffffffffffffffffffffff167f8be0079c531659141344cd1fd0a4f28419497f9722a3daafe3b4186f6b6457e060405160405180910390a3806000806101000a81548173ffffffffffffffffffffffffffffffffffffffff021916908373ffffffffffffffffffffffffffffffffffffffff16021790555050565b6106e96107bb565b73ffffffffffffffffffffffffffffffffffffffff166000809054906101000a900473ffffffffffffffffffffffffffffffffffffffff1673ffffffffffffffffffffffffffffffffffffffff1614610777576040517f08c379a000000000000000000000000000000000000000000000000000000000815260040161076e906112d9565b60405180910390fd5b80600260006101000a81548173ffffffffffffffffffffffffffffffffffffffff021916908373ffffffffffffffffffffffffffffffffffffffff16021790555050565b600033905090565b6107cb610da2565b6000600190506000600160009054906101000a900473ffffffffffffffffffffffffffffffffffffffff1673ffffffffffffffffffffffffffffffffffffffff1663c7c3b53f87878786600281111561082057fe5b6040518563ffffffff1660e01b815260040161083f949392919061134f565b60806040518083038186803b15801561085757600080fd5b505afa15801561086b573d6000803e3d6000fd5b505050506040513d601f19601f8201168201806040525061088f9190810190610ee0565b505050905061089c610da2565b60405180606001604052808881526020018381526020018681525090508093505050509392505050565b60008061098f600a6109816008600260009054906101000a900473ffffffffffffffffffffffffffffffffffffffff1673ffffffffffffffffffffffffffffffffffffffff1663ad7a672f6040518163ffffffff1660e01b815260040160206040518083038186803b15801561093b57600080fd5b505afa15801561094f573d6000803e3d6000fd5b505050506040513d601f19601f820116820180604052506109739190810190610e54565b610b6f90919063ffffffff16565b610bdf90919063ffffffff16565b90506000610ae4600260009054906101000a900473ffffffffffffffffffffffffffffffffffffffff1673ffffffffffffffffffffffffffffffffffffffff1663ab2f0e516040518163ffffffff1660e01b815260040160206040518083038186803b1580156109fe57600080fd5b505afa158015610a12573d6000803e3d6000fd5b505050506040513d601f19601f82011682018060405250610a369190810190610e54565b600260009054906101000a900473ffffffffffffffffffffffffffffffffffffffff1673ffffffffffffffffffffffffffffffffffffffff1663ad7a672f6040518163ffffffff1660e01b815260040160206040518083038186803b158015610a9e57600080fd5b505afa158015610ab2573d6000803e3d6000fd5b505050506040513d601f19601f82011682018060405250610ad69190810190610e54565b610c2990919063ffffffff16565b9050808211610b28576040517f08c379a0000000000000000000000000000000000000000000000000000000008152600401610b1f90611299565b60405180910390fd5b6000610b3d8284610c2990919063ffffffff16565b905084811115610b535760019350505050610b6a565b848111610b665760009350505050610b6a565b5050505b919050565b600080831415610b825760009050610bd9565b6000828402905082848281610b9357fe5b0414610bd4576040517f08c379a0000000000000000000000000000000000000000000000000000000008152600401610bcb906112b9565b60405180910390fd5b809150505b92915050565b6000610c2183836040518060400160405280601a81526020017f536166654d6174683a206469766973696f6e206279207a65726f000000000000815250610c73565b905092915050565b6000610c6b83836040518060400160405280601e81526020017f536166654d6174683a207375627472616374696f6e206f766572666c6f770000815250610cd4565b905092915050565b60008083118290610cba576040517f08c379a0000000000000000000000000000000000000000000000000000000008152600401610cb19190611257565b60405180910390fd5b506000838581610cc657fe5b049050809150509392505050565b6000838311158290610d1c576040517f08c379a0000000000000000000000000000000000000000000000000000000008152600401610d139190611257565b60405180910390fd5b5060008385039050809150509392505050565b6040518060e00160405280600080811115610d4657fe5b8152602001600073ffffffffffffffffffffffffffffffffffffffff168152602001600073ffffffffffffffffffffffffffffffffffffffff168152602001600081526020016000815260200160008152602001600081525090565b60405180606001604052806000815260200160008152602001600081525090565b600081359050610dd28161146f565b92915050565b600081359050610de781611486565b92915050565b600081519050610dfc81611486565b92915050565b600060208284031215610e1457600080fd5b6000610e2284828501610dc3565b91505092915050565b600060208284031215610e3d57600080fd5b6000610e4b84828501610dd8565b91505092915050565b600060208284031215610e6657600080fd5b6000610e7484828501610ded565b91505092915050565b60008060008060808587031215610e9357600080fd5b6000610ea187828801610dd8565b9450506020610eb287828801610dd8565b9350506040610ec387828801610dd8565b9250506060610ed487828801610dd8565b91505092959194509250565b60008060008060808587031215610ef657600080fd5b6000610f0487828801610ded565b9450506020610f1587828801610ded565b9350506040610f2687828801610ded565b9250506060610f3787828801610ded565b91505092959194509250565b610f4c816113b0565b82525050565b610f5b816113b0565b82525050565b610f6a8161140c565b82525050565b6000610f7b82611394565b610f85818561139f565b9350610f9581856020860161141e565b610f9e81611451565b840191505092915050565b6000610fb660268361139f565b91507f4f776e61626c653a206e6577206f776e657220697320746865207a65726f206160008301527f64647265737300000000000000000000000000000000000000000000000000006020830152604082019050919050565b600061101c60258361139f565b91507f7468657265206973206e6f7420656e6f75676820617661696c61626c6520626160008301527f6c616e63650000000000000000000000000000000000000000000000000000006020830152604082019050919050565b600061108260218361139f565b91507f536166654d6174683a206d756c7469706c69636174696f6e206f766572666c6f60008301527f77000000000000000000000000000000000000000000000000000000000000006020830152604082019050919050565b60006110e860208361139f565b91507f4f776e61626c653a2063616c6c6572206973206e6f7420746865206f776e65726000830152602082019050919050565b600061112860348361139f565b91507f796f75722073697a6520697320746f6f2062696720666f72206c69717569646960008301527f747920696e2074686520486567696320563838380000000000000000000000006020830152604082019050919050565b60e0820160008201516111976000850182610f61565b5060208201516111aa6020850182610f43565b5060408201516111bd6040850182610f43565b5060608201516111d0606085018261120f565b5060808201516111e3608085018261120f565b5060a08201516111f660a085018261120f565b5060c082015161120960c085018261120f565b50505050565b611218816113f5565b82525050565b611227816113f5565b82525050565b611236816113ff565b82525050565b60006020820190506112516000830184610f52565b92915050565b600060208201905081810360008301526112718184610f70565b905092915050565b6000602082019050818103600083015261129281610fa9565b9050919050565b600060208201905081810360008301526112b28161100f565b9050919050565b600060208201905081810360008301526112d281611075565b9050919050565b600060208201905081810360008301526112f2816110db565b9050919050565b600060208201905081810360008301526113128161111b565b9050919050565b600060e08201905061132e6000830184611181565b92915050565b6000602082019050611349600083018461121e565b92915050565b6000608082019050611364600083018761121e565b611371602083018661121e565b61137e604083018561121e565b61138b606083018461122d565b95945050505050565b600081519050919050565b600082825260208201905092915050565b60006113bb826113d5565b9050919050565b60008190506113d082611462565b919050565b600073ffffffffffffffffffffffffffffffffffffffff82169050919050565b6000819050919050565b600060ff82169050919050565b6000611417826113c2565b9050919050565b60005b8381101561143c578082015181840152602081019050611421565b8381111561144b576000848401525b50505050565b6000601f19601f8301169050919050565b6001811061146c57fe5b50565b611478816113b0565b811461148357600080fd5b50565b61148f816113f5565b811461149a57600080fd5b5056fea2646970667358221220721af27488fd16088b8e4ac50c10879336b13b6a29d48b95651caeef1f67b82264736f6c63430006000033",
  "linkReferences": {},
  "deployedLinkReferences": {}
}