{
  "_format": "hh-sol-artifact-1",
  "contractName": "DeriOneV1HegicV888",
  "sourceName": "contracts/DeriOneV1HegicV888.sol",
  "abi": [
    {
      "inputs": [
        {
          "internalType": "address",
          "name": "_hegicETHOptionV888Address",
          "type": "address"
        },
        {
          "internalType": "address",
          "name": "_hegicV888ETHPoolAddress",
          "type": "address"
        }
      ],
      "stateMutability": "nonpayable",
      "type": "constructor"
    },
    {
      "anonymous": false,
      "inputs": [
        {
          "indexed": true,
          "internalType": "address",
          "name": "previousOwner",
          "type": "address"
        },
        {
          "indexed": true,
          "internalType": "address",
          "name": "newOwner",
          "type": "address"
        }
      ],
      "name": "OwnershipTransferred",
      "type": "event"
    },
    {
      "inputs": [
        {
          "internalType": "uint256",
          "name": "_expiry",
          "type": "uint256"
        },
        {
          "internalType": "uint256",
          "name": "_strikeUSD",
          "type": "uint256"
        },
        {
          "internalType": "uint256",
          "name": "_sizeWEI",
          "type": "uint256"
        }
      ],
      "name": "getETHPutHegicV888",
      "outputs": [
        {
          "components": [
            {
              "internalType": "enum DataTypes.UnderlyingAsset",
              "name": "underlyingAsset",
              "type": "uint8"
            },
            {
              "internalType": "enum DataTypes.OptionType",
              "name": "optionType",
              "type": "uint8"
            },
            {
              "internalType": "uint256",
              "name": "expiry",
              "type": "uint256"
            },
            {
              "internalType": "uint256",
              "name": "strikeUSD",
              "type": "uint256"
            },
            {
              "internalType": "uint256",
              "name": "premiumWEI",
              "type": "uint256"
            }
          ],
          "internalType": "struct DeriOneV1HegicV888.OptionHegicV888",
          "name": "",
          "type": "tuple"
        }
      ],
      "stateMutability": "view",
      "type": "function"
    },
    {
      "inputs": [
        {
          "internalType": "address",
          "name": "_hegicETHOptionV888Address",
          "type": "address"
        }
      ],
      "name": "instantiateETHOptionHegicV888",
      "outputs": [],
      "stateMutability": "nonpayable",
      "type": "function"
    },
    {
      "inputs": [
        {
          "internalType": "address",
          "name": "_hegicV888ETHPoolAddress",
          "type": "address"
        }
      ],
      "name": "instantiateETHPoolHegicV888",
      "outputs": [],
      "stateMutability": "nonpayable",
      "type": "function"
    },
    {
      "inputs": [],
      "name": "owner",
      "outputs": [
        {
          "internalType": "address",
          "name": "",
          "type": "address"
        }
      ],
      "stateMutability": "view",
      "type": "function"
    },
    {
      "inputs": [],
      "name": "renounceOwnership",
      "outputs": [],
      "stateMutability": "nonpayable",
      "type": "function"
    },
    {
      "inputs": [
        {
          "internalType": "address",
          "name": "newOwner",
          "type": "address"
        }
      ],
      "name": "transferOwnership",
      "outputs": [],
      "stateMutability": "nonpayable",
      "type": "function"
    }
  ],
  "bytecode": "0x60806040523480156200001157600080fd5b5060405162000fe938038062000fe98339818101604052620000379190810190620002fa565b6000620000496200011160201b60201c565b9050806000806101000a81548173ffffffffffffffffffffffffffffffffffffffff021916908373ffffffffffffffffffffffffffffffffffffffff1602179055508073ffffffffffffffffffffffffffffffffffffffff16600073ffffffffffffffffffffffffffffffffffffffff167f8be0079c531659141344cd1fd0a4f28419497f9722a3daafe3b4186f6b6457e060405160405180910390a350620000f8826200011960201b60201c565b6200010981620001fe60201b60201c565b5050620003fe565b600033905090565b620001296200011160201b60201c565b73ffffffffffffffffffffffffffffffffffffffff166000809054906101000a900473ffffffffffffffffffffffffffffffffffffffff1673ffffffffffffffffffffffffffffffffffffffff1614620001ba576040517f08c379a0000000000000000000000000000000000000000000000000000000008152600401620001b1906200037d565b60405180910390fd5b80600160006101000a81548173ffffffffffffffffffffffffffffffffffffffff021916908373ffffffffffffffffffffffffffffffffffffffff16021790555050565b6200020e6200011160201b60201c565b73ffffffffffffffffffffffffffffffffffffffff166000809054906101000a900473ffffffffffffffffffffffffffffffffffffffff1673ffffffffffffffffffffffffffffffffffffffff16146200029f576040517f08c379a000000000000000000000000000000000000000000000000000000000815260040162000296906200037d565b60405180910390fd5b80600260006101000a81548173ffffffffffffffffffffffffffffffffffffffff021916908373ffffffffffffffffffffffffffffffffffffffff16021790555050565b600081519050620002f481620003e4565b92915050565b600080604083850312156200030e57600080fd5b60006200031e85828601620002e3565b92505060206200033185828601620002e3565b9150509250929050565b60006200034a6020836200039f565b91507f4f776e61626c653a2063616c6c6572206973206e6f7420746865206f776e65726000830152602082019050919050565b6000602082019050818103600083015262000398816200033b565b9050919050565b600082825260208201905092915050565b6000620003bd82620003c4565b9050919050565b600073ffffffffffffffffffffffffffffffffffffffff82169050919050565b620003ef81620003b0565b8114620003fb57600080fd5b50565b610bdb806200040e6000396000f3fe608060405234801561001057600080fd5b50600436106100625760003560e01c8063119ad902146100675780631daccb03146100975780635d77a871146100b3578063715018a6146100cf5780638da5cb5b146100d9578063f2fde38b146100f7575b600080fd5b610081600480360361007c91908101906107e4565b610113565b60405161008e9190610a59565b60405180910390f35b6100b160048036036100ac91908101906107bb565b610239565b005b6100cd60048036036100c891908101906107bb565b610313565b005b6100d76103ed565b005b6100e1610542565b6040516100ee91906109fe565b60405180910390f35b610111600480360361010c91908101906107bb565b61056b565b005b61011b610737565b6000600190506000600160009054906101000a900473ffffffffffffffffffffffffffffffffffffffff1673ffffffffffffffffffffffffffffffffffffffff1663c7c3b53f87868886600281111561017057fe5b6040518563ffffffff1660e01b815260040161018f9493929190610a74565b60806040518083038186803b1580156101a757600080fd5b505afa1580156101bb573d6000803e3d6000fd5b505050506040513d601f19601f820116820180604052506101df9190810190610833565b50505090506101ec610737565b6040518060a001604052806000600181111561020457fe5b815260200160018081111561021557fe5b81526020018881526020018781526020018381525090508093505050509392505050565b61024161072f565b73ffffffffffffffffffffffffffffffffffffffff166000809054906101000a900473ffffffffffffffffffffffffffffffffffffffff1673ffffffffffffffffffffffffffffffffffffffff16146102cf576040517f08c379a00000000000000000000000000000000000000000000000000000000081526004016102c690610a39565b60405180910390fd5b80600160006101000a81548173ffffffffffffffffffffffffffffffffffffffff021916908373ffffffffffffffffffffffffffffffffffffffff16021790555050565b61031b61072f565b73ffffffffffffffffffffffffffffffffffffffff166000809054906101000a900473ffffffffffffffffffffffffffffffffffffffff1673ffffffffffffffffffffffffffffffffffffffff16146103a9576040517f08c379a00000000000000000000000000000000000000000000000000000000081526004016103a090610a39565b60405180910390fd5b80600260006101000a81548173ffffffffffffffffffffffffffffffffffffffff021916908373ffffffffffffffffffffffffffffffffffffffff16021790555050565b6103f561072f565b73ffffffffffffffffffffffffffffffffffffffff166000809054906101000a900473ffffffffffffffffffffffffffffffffffffffff1673ffffffffffffffffffffffffffffffffffffffff1614610483576040517f08c379a000000000000000000000000000000000000000000000000000000000815260040161047a90610a39565b60405180910390fd5b600073ffffffffffffffffffffffffffffffffffffffff166000809054906101000a900473ffffffffffffffffffffffffffffffffffffffff1673ffffffffffffffffffffffffffffffffffffffff167f8be0079c531659141344cd1fd0a4f28419497f9722a3daafe3b4186f6b6457e060405160405180910390a360008060006101000a81548173ffffffffffffffffffffffffffffffffffffffff021916908373ffffffffffffffffffffffffffffffffffffffff160217905550565b60008060009054906101000a900473ffffffffffffffffffffffffffffffffffffffff16905090565b61057361072f565b73ffffffffffffffffffffffffffffffffffffffff166000809054906101000a900473ffffffffffffffffffffffffffffffffffffffff1673ffffffffffffffffffffffffffffffffffffffff1614610601576040517f08c379a00000000000000000000000000000000000000000000000000000000081526004016105f890610a39565b60405180910390fd5b600073ffffffffffffffffffffffffffffffffffffffff168173ffffffffffffffffffffffffffffffffffffffff161415610671576040517f08c379a000000000000000000000000000000000000000000000000000000000815260040161066890610a19565b60405180910390fd5b8073ffffffffffffffffffffffffffffffffffffffff166000809054906101000a900473ffffffffffffffffffffffffffffffffffffffff1673ffffffffffffffffffffffffffffffffffffffff167f8be0079c531659141344cd1fd0a4f28419497f9722a3daafe3b4186f6b6457e060405160405180910390a3806000806101000a81548173ffffffffffffffffffffffffffffffffffffffff021916908373ffffffffffffffffffffffffffffffffffffffff16021790555050565b600033905090565b6040518060a001604052806000600181111561074f57fe5b81526020016000600181111561076157fe5b81526020016000815260200160008152602001600081525090565b60008135905061078b81610b77565b92915050565b6000813590506107a081610b8e565b92915050565b6000815190506107b581610b8e565b92915050565b6000602082840312156107cd57600080fd5b60006107db8482850161077c565b91505092915050565b6000806000606084860312156107f957600080fd5b600061080786828701610791565b935050602061081886828701610791565b925050604061082986828701610791565b9150509250925092565b6000806000806080858703121561084957600080fd5b6000610857878288016107a6565b9450506020610868878288016107a6565b9350506040610879878288016107a6565b925050606061088a878288016107a6565b91505092959194509250565b61089f81610aca565b82525050565b6108ae81610b39565b82525050565b6108bd81610b4b565b82525050565b60006108d0602683610ab9565b91507f4f776e61626c653a206e6577206f776e657220697320746865207a65726f206160008301527f64647265737300000000000000000000000000000000000000000000000000006020830152604082019050919050565b6000610936602083610ab9565b91507f4f776e61626c653a2063616c6c6572206973206e6f7420746865206f776e65726000830152602082019050919050565b60a08201600082015161097f60008501826108b4565b50602082015161099260208501826108a5565b5060408201516109a560408501826109d1565b5060608201516109b860608501826109d1565b5060808201516109cb60808501826109d1565b50505050565b6109da81610b22565b82525050565b6109e981610b22565b82525050565b6109f881610b2c565b82525050565b6000602082019050610a136000830184610896565b92915050565b60006020820190508181036000830152610a32816108c3565b9050919050565b60006020820190508181036000830152610a5281610929565b9050919050565b600060a082019050610a6e6000830184610969565b92915050565b6000608082019050610a8960008301876109e0565b610a9660208301866109e0565b610aa360408301856109e0565b610ab060608301846109ef565b95945050505050565b600082825260208201905092915050565b6000610ad582610b02565b9050919050565b6000819050610aea82610b5d565b919050565b6000819050610afd82610b6a565b919050565b600073ffffffffffffffffffffffffffffffffffffffff82169050919050565b6000819050919050565b600060ff82169050919050565b6000610b4482610adc565b9050919050565b6000610b5682610aef565b9050919050565b60028110610b6757fe5b50565b60028110610b7457fe5b50565b610b8081610aca565b8114610b8b57600080fd5b50565b610b9781610b22565b8114610ba257600080fd5b5056fea26469706673582212203c8714bd1703ae6e0b3deefabcb4e934e8058d511f12243bd00024381f37aaf664736f6c63430006000033",
  "linkReferences": {},
  "deployedLinkReferences": {}
}