{
  "_format": "hh-sol-artifact-1",
  "contractName": "DeriOneV1CharmV02",
  "sourceName": "contracts/DeriOneV1CharmV02.sol",
  "abi": [
    {
      "inputs": [
        {
          "internalType": "address",
          "name": "_optionFactoryAddressCharmV02",
          "type": "address"
        }
      ],
      "stateMutability": "nonpayable",
      "type": "constructor"
    },
    {
      "anonymous": false,
      "inputs": [
        {
          "indexed": true,
          "internalType": "address",
          "name": "previousOwner",
          "type": "address"
        },
        {
          "indexed": true,
          "internalType": "address",
          "name": "newOwner",
          "type": "address"
        }
      ],
      "name": "OwnershipTransferred",
      "type": "event"
    },
    {
      "inputs": [
        {
          "internalType": "uint256",
          "name": "_minExpiry",
          "type": "uint256"
        },
        {
          "internalType": "uint256",
          "name": "_maxExpiry",
          "type": "uint256"
        },
        {
          "internalType": "uint256",
          "name": "_minStrikeUSD",
          "type": "uint256"
        },
        {
          "internalType": "uint256",
          "name": "_maxStrikeUSD",
          "type": "uint256"
        },
        {
          "internalType": "uint256",
          "name": "_sizeWEI",
          "type": "uint256"
        }
      ],
      "name": "getMatchedOptionListCharmV02",
      "outputs": [
        {
          "components": [
            {
              "internalType": "enum DataTypes.UnderlyingAsset",
              "name": "underlyingAsset",
              "type": "uint8"
            },
            {
              "internalType": "enum DataTypes.OptionType",
              "name": "optionType",
              "type": "uint8"
            },
            {
              "internalType": "uint256",
              "name": "expiry",
              "type": "uint256"
            },
            {
              "internalType": "uint256",
              "name": "strikeUSD",
              "type": "uint256"
            },
            {
              "internalType": "uint256",
              "name": "premiumWEI",
              "type": "uint256"
            }
          ],
          "internalType": "struct DeriOneV1CharmV02.OptionCharmV02[]",
          "name": "",
          "type": "tuple[]"
        }
      ],
      "stateMutability": "view",
      "type": "function"
    },
    {
      "inputs": [
        {
          "internalType": "address",
          "name": "_optionFactoryAddressCharmV02",
          "type": "address"
        }
      ],
      "name": "instantiateOptionFactoryCharmV02",
      "outputs": [],
      "stateMutability": "nonpayable",
      "type": "function"
    },
    {
      "inputs": [],
      "name": "owner",
      "outputs": [
        {
          "internalType": "address",
          "name": "",
          "type": "address"
        }
      ],
      "stateMutability": "view",
      "type": "function"
    },
    {
      "inputs": [],
      "name": "renounceOwnership",
      "outputs": [],
      "stateMutability": "nonpayable",
      "type": "function"
    },
    {
      "inputs": [
        {
          "internalType": "address",
          "name": "newOwner",
          "type": "address"
        }
      ],
      "name": "transferOwnership",
      "outputs": [],
      "stateMutability": "nonpayable",
      "type": "function"
    }
  ],
  "bytecode": "0x60806040523480156200001157600080fd5b5060405162001b3638038062001b36833981810160405262000037919081019062000203565b600062000049620000ff60201b60201c565b9050806000806101000a81548173ffffffffffffffffffffffffffffffffffffffff021916908373ffffffffffffffffffffffffffffffffffffffff1602179055508073ffffffffffffffffffffffffffffffffffffffff16600073ffffffffffffffffffffffffffffffffffffffff167f8be0079c531659141344cd1fd0a4f28419497f9722a3daafe3b4186f6b6457e060405160405180910390a350620000f8816200010760201b60201c565b50620002f2565b600033905090565b62000117620000ff60201b60201c565b73ffffffffffffffffffffffffffffffffffffffff166000809054906101000a900473ffffffffffffffffffffffffffffffffffffffff1673ffffffffffffffffffffffffffffffffffffffff1614620001a8576040517f08c379a00000000000000000000000000000000000000000000000000000000081526004016200019f9062000271565b60405180910390fd5b80600160006101000a81548173ffffffffffffffffffffffffffffffffffffffff021916908373ffffffffffffffffffffffffffffffffffffffff16021790555050565b600081519050620001fd81620002d8565b92915050565b6000602082840312156200021657600080fd5b60006200022684828501620001ec565b91505092915050565b60006200023e60208362000293565b91507f4f776e61626c653a2063616c6c6572206973206e6f7420746865206f776e65726000830152602082019050919050565b600060208201905081810360008301526200028c816200022f565b9050919050565b600082825260208201905092915050565b6000620002b182620002b8565b9050919050565b600073ffffffffffffffffffffffffffffffffffffffff82169050919050565b620002e381620002a4565b8114620002ef57600080fd5b50565b61183480620003026000396000f3fe608060405234801561001057600080fd5b50600436106100575760003560e01c8063715018a61461005c5780637766918c14610066578063895c4a15146100825780638da5cb5b146100b2578063f2fde38b146100d0575b600080fd5b6100646100ec565b005b610080600480360361007b91908101906112e1565b610241565b005b61009c60048036036100979190810190611385565b61031b565b6040516100a99190611626565b60405180910390f35b6100ba61051b565b6040516100c7919061160b565b60405180910390f35b6100ea60048036036100e591908101906112e1565b610544565b005b6100f4610708565b73ffffffffffffffffffffffffffffffffffffffff166000809054906101000a900473ffffffffffffffffffffffffffffffffffffffff1673ffffffffffffffffffffffffffffffffffffffff1614610182576040517f08c379a000000000000000000000000000000000000000000000000000000000815260040161017990611688565b60405180910390fd5b600073ffffffffffffffffffffffffffffffffffffffff166000809054906101000a900473ffffffffffffffffffffffffffffffffffffffff1673ffffffffffffffffffffffffffffffffffffffff167f8be0079c531659141344cd1fd0a4f28419497f9722a3daafe3b4186f6b6457e060405160405180910390a360008060006101000a81548173ffffffffffffffffffffffffffffffffffffffff021916908373ffffffffffffffffffffffffffffffffffffffff160217905550565b610249610708565b73ffffffffffffffffffffffffffffffffffffffff166000809054906101000a900473ffffffffffffffffffffffffffffffffffffffff1673ffffffffffffffffffffffffffffffffffffffff16146102d7576040517f08c379a00000000000000000000000000000000000000000000000000000000081526004016102ce90611688565b60405180910390fd5b80600160006101000a81548173ffffffffffffffffffffffffffffffffffffffff021916908373ffffffffffffffffffffffffffffffffffffffff16021790555050565b606080610326610710565b9050600080600090505b82518110156103e25782818151811061034557fe5b6020026020010151604001518910801561037557508783828151811061036757fe5b602002602001015160400151105b8015610397575082818151811061038857fe5b60200260200101516060015187105b80156103b95750858382815181106103ab57fe5b602002602001015160600151105b156103d5576103d2600183610aea90919063ffffffff16565b91505b8080600101915050610330565b5060608160405190808252806020026020018201604052801561041f57816020015b61040c611233565b8152602001906001900390816104045790505b50905060008090505b835181101561050b5783818151811061043d57fe5b6020026020010151604001518a10801561046d57508884828151811061045f57fe5b602002602001015160400151105b801561048f575083818151811061048057fe5b60200260200101516060015188105b80156104b15750868482815181106104a357fe5b602002602001015160600151105b156104fe5760008090505b838110156104fc578482815181106104d057fe5b60200260200101518382815181106104e457fe5b602002602001018190525080806001019150506104bc565b505b8080600101915050610428565b5080935050505095945050505050565b60008060009054906101000a900473ffffffffffffffffffffffffffffffffffffffff16905090565b61054c610708565b73ffffffffffffffffffffffffffffffffffffffff166000809054906101000a900473ffffffffffffffffffffffffffffffffffffffff1673ffffffffffffffffffffffffffffffffffffffff16146105da576040517f08c379a00000000000000000000000000000000000000000000000000000000081526004016105d190611688565b60405180910390fd5b600073ffffffffffffffffffffffffffffffffffffffff168173ffffffffffffffffffffffffffffffffffffffff16141561064a576040517f08c379a000000000000000000000000000000000000000000000000000000000815260040161064190611648565b60405180910390fd5b8073ffffffffffffffffffffffffffffffffffffffff166000809054906101000a900473ffffffffffffffffffffffffffffffffffffffff1673ffffffffffffffffffffffffffffffffffffffff167f8be0079c531659141344cd1fd0a4f28419497f9722a3daafe3b4186f6b6457e060405160405180910390a3806000806101000a81548173ffffffffffffffffffffffffffffffffffffffff021916908373ffffffffffffffffffffffffffffffffffffffff16021790555050565b600033905090565b60608061071b610b3f565b9050606061072882610d2e565b9050606061073582610de4565b9050600080600090505b825181101561081d57600083828151811061075657fe5b602002602001015173ffffffffffffffffffffffffffffffffffffffff1663f02ee7ad6040518163ffffffff1660e01b815260040160206040518083038186803b1580156107a357600080fd5b505afa1580156107b7573d6000803e3d6000fd5b505050506040513d601f19601f820116820180604052506107db919081019061135c565b905060008090505b8181101561080e576107ff600185610aea90919063ffffffff16565b935080806001019150506107e3565b5050808060010191505061073f565b5060608160405190808252806020026020018201604052801561085a57816020015b610847611233565b81526020019060019003908161083f5790505b50905060008090505b8351811015610ade57600084828151811061087a57fe5b602002602001015173ffffffffffffffffffffffffffffffffffffffff1663f02ee7ad6040518163ffffffff1660e01b815260040160206040518083038186803b1580156108c757600080fd5b505afa1580156108db573d6000803e3d6000fd5b505050506040513d601f19601f820116820180604052506108ff919081019061135c565b905060008090505b81811015610acf57600086848151811061091d57fe5b602002602001015173ffffffffffffffffffffffffffffffffffffffff166399bc0aea6040518163ffffffff1660e01b815260040160206040518083038186803b15801561096a57600080fd5b505afa15801561097e573d6000803e3d6000fd5b505050506040513d601f19601f820116820180604052506109a2919081019061135c565b905060008785815181106109b257fe5b602002602001015173ffffffffffffffffffffffffffffffffffffffff16632f4ad3f6846040518263ffffffff1660e01b81526004016109f291906116a8565b60206040518083038186803b158015610a0a57600080fd5b505afa158015610a1e573d6000803e3d6000fd5b505050506040513d601f19601f82011682018060405250610a42919081019061135c565b9050600080861415610a5657839050610a68565b6000861115610a6757838587020190505b5b6040518060a0016040528060006001811115610a8057fe5b815260200160006001811115610a9257fe5b81526020018481526020018381526020016000815250878281518110610ab457fe5b60200260200101819052505050508080600101915050610907565b50508080600101915050610863565b50809550505050505090565b600080828401905083811015610b35576040517f08c379a0000000000000000000000000000000000000000000000000000000008152600401610b2c90611668565b60405180910390fd5b8091505092915050565b60606000600160009054906101000a900473ffffffffffffffffffffffffffffffffffffffff1673ffffffffffffffffffffffffffffffffffffffff166326e04f9d6040518163ffffffff1660e01b815260040160206040518083038186803b158015610bab57600080fd5b505afa158015610bbf573d6000803e3d6000fd5b505050506040513d601f19601f82011682018060405250610be3919081019061135c565b9050606081604051908082528060200260200182016040528015610c165781602001602082028038833980820191505090505b50905060008090505b82811015610d2557600160009054906101000a900473ffffffffffffffffffffffffffffffffffffffff1673ffffffffffffffffffffffffffffffffffffffff1663b1283e77826040518263ffffffff1660e01b8152600401610c8291906116a8565b60206040518083038186803b158015610c9a57600080fd5b505afa158015610cae573d6000803e3d6000fd5b505050506040513d601f19601f82011682018060405250610cd2919081019061130a565b828281518110610cde57fe5b602002602001019073ffffffffffffffffffffffffffffffffffffffff16908173ffffffffffffffffffffffffffffffffffffffff16815250508080600101915050610c1f565b50809250505090565b6060808251604051908082528060200260200182016040528015610d615781602001602082028038833980820191505090505b50905060008090505b8351811015610dda57838181518110610d7f57fe5b6020026020010151828281518110610d9357fe5b602002602001019073ffffffffffffffffffffffffffffffffffffffff16908173ffffffffffffffffffffffffffffffffffffffff16815250508080600101915050610d6a565b5080915050919050565b6060600080600090505b8351811015610f8057600073ffffffffffffffffffffffffffffffffffffffff16848281518110610e1b57fe5b602002602001015173ffffffffffffffffffffffffffffffffffffffff1663c55dae636040518163ffffffff1660e01b815260040160206040518083038186803b158015610e6857600080fd5b505afa158015610e7c573d6000803e3d6000fd5b505050506040513d601f19601f82011682018060405250610ea0919081019061130a565b73ffffffffffffffffffffffffffffffffffffffff16148015610f57575060001515848281518110610ece57fe5b602002602001015173ffffffffffffffffffffffffffffffffffffffff1663f3c274a66040518163ffffffff1660e01b815260040160206040518083038186803b158015610f1b57600080fd5b505afa158015610f2f573d6000803e3d6000fd5b505050506040513d601f19601f82011682018060405250610f539190810190611333565b1515145b15610f7357610f70600183610aea90919063ffffffff16565b91505b8080600101915050610dee565b50606081604051908082528060200260200182016040528015610fb25781602001602082028038833980820191505090505b50905060008090505b845181101561122857600073ffffffffffffffffffffffffffffffffffffffff16858281518110610fe857fe5b602002602001015173ffffffffffffffffffffffffffffffffffffffff1663c55dae636040518163ffffffff1660e01b815260040160206040518083038186803b15801561103557600080fd5b505afa158015611049573d6000803e3d6000fd5b505050506040513d601f19601f8201168201806040525061106d919081019061130a565b73ffffffffffffffffffffffffffffffffffffffff1614801561112457506000151585828151811061109b57fe5b602002602001015173ffffffffffffffffffffffffffffffffffffffff1663f3c274a66040518163ffffffff1660e01b815260040160206040518083038186803b1580156110e857600080fd5b505afa1580156110fc573d6000803e3d6000fd5b505050506040513d601f19601f820116820180604052506111209190810190611333565b1515145b1561121b57600160009054906101000a900473ffffffffffffffffffffffffffffffffffffffff1673ffffffffffffffffffffffffffffffffffffffff1663b1283e77826040518263ffffffff1660e01b815260040161118491906116a8565b60206040518083038186803b15801561119c57600080fd5b505afa1580156111b0573d6000803e3d6000fd5b505050506040513d601f19601f820116820180604052506111d4919081019061130a565b8282815181106111e057fe5b602002602001019073ffffffffffffffffffffffffffffffffffffffff16908173ffffffffffffffffffffffffffffffffffffffff16815250505b8080600101915050610fbb565b508092505050919050565b6040518060a001604052806000600181111561124b57fe5b81526020016000600181111561125d57fe5b81526020016000815260200160008152602001600081525090565b600081359050611287816117b9565b92915050565b60008151905061129c816117b9565b92915050565b6000815190506112b1816117d0565b92915050565b6000813590506112c6816117e7565b92915050565b6000815190506112db816117e7565b92915050565b6000602082840312156112f357600080fd5b600061130184828501611278565b91505092915050565b60006020828403121561131c57600080fd5b600061132a8482850161128d565b91505092915050565b60006020828403121561134557600080fd5b6000611353848285016112a2565b91505092915050565b60006020828403121561136e57600080fd5b600061137c848285016112cc565b91505092915050565b600080600080600060a0868803121561139d57600080fd5b60006113ab888289016112b7565b95505060206113bc888289016112b7565b94505060406113cd888289016112b7565b93505060606113de888289016112b7565b92505060806113ef888289016112b7565b9150509295509295909350565b60006114088383611585565b60a08301905092915050565b61141d8161170d565b82525050565b600061142e826116d3565b61143881856116eb565b9350611443836116c3565b8060005b8381101561147457815161145b88826113fc565b9750611466836116de565b925050600181019050611447565b5085935050505092915050565b61148a8161177b565b82525050565b6114998161178d565b82525050565b60006114ac6026836116fc565b91507f4f776e61626c653a206e6577206f776e657220697320746865207a65726f206160008301527f64647265737300000000000000000000000000000000000000000000000000006020830152604082019050919050565b6000611512601b836116fc565b91507f536166654d6174683a206164646974696f6e206f766572666c6f7700000000006000830152602082019050919050565b60006115526020836116fc565b91507f4f776e61626c653a2063616c6c6572206973206e6f7420746865206f776e65726000830152602082019050919050565b60a08201600082015161159b6000850182611490565b5060208201516115ae6020850182611481565b5060408201516115c160408501826115ed565b5060608201516115d460608501826115ed565b5060808201516115e760808501826115ed565b50505050565b6115f681611771565b82525050565b61160581611771565b82525050565b60006020820190506116206000830184611414565b92915050565b600060208201905081810360008301526116408184611423565b905092915050565b600060208201905081810360008301526116618161149f565b9050919050565b6000602082019050818103600083015261168181611505565b9050919050565b600060208201905081810360008301526116a181611545565b9050919050565b60006020820190506116bd60008301846115fc565b92915050565b6000819050602082019050919050565b600081519050919050565b6000602082019050919050565b600082825260208201905092915050565b600082825260208201905092915050565b600061171882611751565b9050919050565b60008115159050919050565b60008190506117398261179f565b919050565b600081905061174c826117ac565b919050565b600073ffffffffffffffffffffffffffffffffffffffff82169050919050565b6000819050919050565b60006117868261172b565b9050919050565b60006117988261173e565b9050919050565b600281106117a957fe5b50565b600281106117b657fe5b50565b6117c28161170d565b81146117cd57600080fd5b50565b6117d98161171f565b81146117e457600080fd5b50565b6117f081611771565b81146117fb57600080fd5b5056fea264697066735822122057321ca51a5abcbf6c9e236820b8796ef3b7bf6be94b2a2d0f9ba2e0ebda79b164736f6c63430006000033",
  "linkReferences": {},
  "deployedLinkReferences": {}
}